{
  "_format": "hh-sol-artifact-1",
  "contractName": "GREToken",
  "sourceName": "contracts/GREToken.sol",
  "abi": [
    {
      "inputs": [],
      "stateMutability": "nonpayable",
      "type": "constructor"
    },
    {
      "anonymous": false,
      "inputs": [
        {
          "indexed": true,
          "internalType": "address",
          "name": "owner",
          "type": "address"
        },
        {
          "indexed": true,
          "internalType": "address",
          "name": "spender",
          "type": "address"
        },
        {
          "indexed": false,
          "internalType": "uint256",
          "name": "value",
          "type": "uint256"
        }
      ],
      "name": "Approval",
      "type": "event"
    },
    {
      "anonymous": false,
      "inputs": [
        {
          "indexed": true,
          "internalType": "address",
          "name": "previousOwner",
          "type": "address"
        },
        {
          "indexed": true,
          "internalType": "address",
          "name": "newOwner",
          "type": "address"
        }
      ],
      "name": "OwnershipTransferred",
      "type": "event"
    },
    {
      "anonymous": false,
      "inputs": [
        {
          "indexed": true,
          "internalType": "address",
          "name": "from",
          "type": "address"
        },
        {
          "indexed": true,
          "internalType": "address",
          "name": "to",
          "type": "address"
        },
        {
          "indexed": false,
          "internalType": "uint256",
          "name": "value",
          "type": "uint256"
        }
      ],
      "name": "Transfer",
      "type": "event"
    },
    {
      "inputs": [
        {
          "internalType": "address",
          "name": "owner",
          "type": "address"
        },
        {
          "internalType": "address",
          "name": "spender",
          "type": "address"
        }
      ],
      "name": "allowance",
      "outputs": [
        {
          "internalType": "uint256",
          "name": "",
          "type": "uint256"
        }
      ],
      "stateMutability": "view",
      "type": "function"
    },
    {
      "inputs": [
        {
          "internalType": "address",
          "name": "spender",
          "type": "address"
        },
        {
          "internalType": "uint256",
          "name": "amount",
          "type": "uint256"
        }
      ],
      "name": "approve",
      "outputs": [
        {
          "internalType": "bool",
          "name": "",
          "type": "bool"
        }
      ],
      "stateMutability": "nonpayable",
      "type": "function"
    },
    {
      "inputs": [
        {
          "internalType": "address",
          "name": "account",
          "type": "address"
        }
      ],
      "name": "balanceOf",
      "outputs": [
        {
          "internalType": "uint256",
          "name": "",
          "type": "uint256"
        }
      ],
      "stateMutability": "view",
      "type": "function"
    },
    {
      "inputs": [
        {
          "internalType": "uint256",
          "name": "burnAmount",
          "type": "uint256"
        }
      ],
      "name": "burn",
      "outputs": [],
      "stateMutability": "nonpayable",
      "type": "function"
    },
    {
      "inputs": [],
      "name": "decimals",
      "outputs": [
        {
          "internalType": "uint8",
          "name": "",
          "type": "uint8"
        }
      ],
      "stateMutability": "view",
      "type": "function"
    },
    {
      "inputs": [
        {
          "internalType": "address",
          "name": "spender",
          "type": "address"
        },
        {
          "internalType": "uint256",
          "name": "subtractedValue",
          "type": "uint256"
        }
      ],
      "name": "decreaseAllowance",
      "outputs": [
        {
          "internalType": "bool",
          "name": "",
          "type": "bool"
        }
      ],
      "stateMutability": "nonpayable",
      "type": "function"
    },
    {
      "inputs": [
        {
          "internalType": "address",
          "name": "spender",
          "type": "address"
        },
        {
          "internalType": "uint256",
          "name": "addedValue",
          "type": "uint256"
        }
      ],
      "name": "increaseAllowance",
      "outputs": [
        {
          "internalType": "bool",
          "name": "",
          "type": "bool"
        }
      ],
      "stateMutability": "nonpayable",
      "type": "function"
    },
    {
      "inputs": [],
      "name": "name",
      "outputs": [
        {
          "internalType": "string",
          "name": "",
          "type": "string"
        }
      ],
      "stateMutability": "view",
      "type": "function"
    },
    {
      "inputs": [],
      "name": "owner",
      "outputs": [
        {
          "internalType": "address",
          "name": "",
          "type": "address"
        }
      ],
      "stateMutability": "view",
      "type": "function"
    },
    {
      "inputs": [],
      "name": "renounceOwnership",
      "outputs": [],
      "stateMutability": "nonpayable",
      "type": "function"
    },
    {
      "inputs": [],
      "name": "symbol",
      "outputs": [
        {
          "internalType": "string",
          "name": "",
          "type": "string"
        }
      ],
      "stateMutability": "view",
      "type": "function"
    },
    {
      "inputs": [],
      "name": "totalSupply",
      "outputs": [
        {
          "internalType": "uint256",
          "name": "",
          "type": "uint256"
        }
      ],
      "stateMutability": "view",
      "type": "function"
    },
    {
      "inputs": [
        {
          "internalType": "address",
          "name": "recipient",
          "type": "address"
        },
        {
          "internalType": "uint256",
          "name": "amount",
          "type": "uint256"
        }
      ],
      "name": "transfer",
      "outputs": [
        {
          "internalType": "bool",
          "name": "",
          "type": "bool"
        }
      ],
      "stateMutability": "nonpayable",
      "type": "function"
    },
    {
      "inputs": [
        {
          "internalType": "address",
          "name": "sender",
          "type": "address"
        },
        {
          "internalType": "address",
          "name": "recipient",
          "type": "address"
        },
        {
          "internalType": "uint256",
          "name": "amount",
          "type": "uint256"
        }
      ],
      "name": "transferFrom",
      "outputs": [
        {
          "internalType": "bool",
          "name": "",
          "type": "bool"
        }
      ],
      "stateMutability": "nonpayable",
      "type": "function"
    },
    {
      "inputs": [
        {
          "internalType": "address",
          "name": "newOwner",
          "type": "address"
        }
      ],
      "name": "transferOwnership",
      "outputs": [],
      "stateMutability": "nonpayable",
      "type": "function"
    }
  ],
  "bytecode": "0x60806040523480156200001157600080fd5b506040518060400160405280601c81526020017f47616d696e67205265616c20457374617465204d6574617665727365000000008152506040518060400160405280600381526020017f475245000000000000000000000000000000000000000000000000000000000081525081600390805190602001906200009692919062000317565b508060049080519060200190620000af92919062000317565b50505033600560006101000a81548173ffffffffffffffffffffffffffffffffffffffff021916908373ffffffffffffffffffffffffffffffffffffffff160217905550600560009054906101000a900473ffffffffffffffffffffffffffffffffffffffff1673ffffffffffffffffffffffffffffffffffffffff16600073ffffffffffffffffffffffffffffffffffffffff167f8be0079c531659141344cd1fd0a4f28419497f9722a3daafe3b4186f6b6457e060405160405180910390a36200018e336b033b2e3c9fd0803ce80000006200019460201b60201c565b62000573565b600073ffffffffffffffffffffffffffffffffffffffff168273ffffffffffffffffffffffffffffffffffffffff16141562000207576040517f08c379a0000000000000000000000000000000000000000000000000000000008152600401620001fe90620003ff565b60405180910390fd5b6200021b600083836200030d60201b60201c565b80600260008282546200022f91906200044f565b92505081905550806000808473ffffffffffffffffffffffffffffffffffffffff1673ffffffffffffffffffffffffffffffffffffffff16815260200190815260200160002060008282546200028691906200044f565b925050819055508173ffffffffffffffffffffffffffffffffffffffff16600073ffffffffffffffffffffffffffffffffffffffff167fddf252ad1be2c89b69c2b068fc378daa952ba7f163c4a11628f55a4df523b3ef83604051620002ed919062000421565b60405180910390a362000309600083836200031260201b60201c565b5050565b505050565b505050565b8280546200032590620004b6565b90600052602060002090601f01602090048101928262000349576000855562000395565b82601f106200036457805160ff191683800117855562000395565b8280016001018555821562000395579182015b828111156200039457825182559160200191906001019062000377565b5b509050620003a49190620003a8565b5090565b5b80821115620003c3576000816000905550600101620003a9565b5090565b6000620003d6601f836200043e565b9150620003e3826200054a565b602082019050919050565b620003f981620004ac565b82525050565b600060208201905081810360008301526200041a81620003c7565b9050919050565b6000602082019050620004386000830184620003ee565b92915050565b600082825260208201905092915050565b60006200045c82620004ac565b91506200046983620004ac565b9250827fffffffffffffffffffffffffffffffffffffffffffffffffffffffffffffffff03821115620004a157620004a0620004ec565b5b828201905092915050565b6000819050919050565b60006002820490506001821680620004cf57607f821691505b60208210811415620004e657620004e56200051b565b5b50919050565b7f4e487b7100000000000000000000000000000000000000000000000000000000600052601160045260246000fd5b7f4e487b7100000000000000000000000000000000000000000000000000000000600052602260045260246000fd5b7f45524332303a206d696e7420746f20746865207a65726f206164647265737300600082015250565b611f4e80620005836000396000f3fe608060405234801561001057600080fd5b50600436106100f55760003560e01c806370a0823111610097578063a457c2d711610066578063a457c2d714610276578063a9059cbb146102a6578063dd62ed3e146102d6578063f2fde38b14610306576100f5565b806370a0823114610200578063715018a6146102305780638da5cb5b1461023a57806395d89b4114610258576100f5565b806323b872dd116100d357806323b872dd14610166578063313ce5671461019657806339509351146101b457806342966c68146101e4576100f5565b806306fdde03146100fa578063095ea7b31461011857806318160ddd14610148575b600080fd5b610102610322565b60405161010f91906116b2565b60405180910390f35b610132600480360381019061012d91906113db565b6103b4565b60405161013f9190611697565b60405180910390f35b6101506103d2565b60405161015d9190611874565b60405180910390f35b610180600480360381019061017b919061138c565b6103dc565b60405161018d9190611697565b60405180910390f35b61019e6104d4565b6040516101ab919061188f565b60405180910390f35b6101ce60048036038101906101c991906113db565b6104dd565b6040516101db9190611697565b60405180910390f35b6101fe60048036038101906101f99190611417565b610589565b005b61021a60048036038101906102159190611327565b6106eb565b6040516102279190611874565b60405180910390f35b610238610733565b005b610242610884565b60405161024f919061167c565b60405180910390f35b6102606108ae565b60405161026d91906116b2565b60405180910390f35b610290600480360381019061028b91906113db565b610940565b60405161029d9190611697565b60405180910390f35b6102c060048036038101906102bb91906113db565b610a2b565b6040516102cd9190611697565b60405180910390f35b6102f060048036038101906102eb9190611350565b610a49565b6040516102fd9190611874565b60405180910390f35b610320600480360381019061031b9190611327565b610ad0565b005b60606003805461033190611a63565b80601f016020809104026020016040519081016040528092919081815260200182805461035d90611a63565b80156103aa5780601f1061037f576101008083540402835291602001916103aa565b820191906000526020600020905b81548152906001019060200180831161038d57829003601f168201915b5050505050905090565b60006103c86103c1610b6c565b8484610b74565b6001905092915050565b6000600254905090565b60006103e9848484610d3f565b6000600160008673ffffffffffffffffffffffffffffffffffffffff1673ffffffffffffffffffffffffffffffffffffffff1681526020019081526020016000206000610434610b6c565b73ffffffffffffffffffffffffffffffffffffffff1673ffffffffffffffffffffffffffffffffffffffff168152602001908152602001600020549050828110156104b4576040517f08c379a00000000000000000000000000000000000000000000000000000000081526004016104ab90611794565b60405180910390fd5b6104c8856104c0610b6c565b858403610b74565b60019150509392505050565b60006012905090565b600061057f6104ea610b6c565b8484600160006104f8610b6c565b73ffffffffffffffffffffffffffffffffffffffff1673ffffffffffffffffffffffffffffffffffffffff16815260200190815260200160002060008873ffffffffffffffffffffffffffffffffffffffff1673ffffffffffffffffffffffffffffffffffffffff1681526020019081526020016000205461057a91906118c6565b610b74565b6001905092915050565b3373ffffffffffffffffffffffffffffffffffffffff16600560009054906101000a900473ffffffffffffffffffffffffffffffffffffffff1673ffffffffffffffffffffffffffffffffffffffff1614610619576040517f08c379a0000000000000000000000000000000000000000000000000000000008152600401610610906116f4565b60405180910390fd5b6b019d971e4fe8401e7400000061062e6103d2565b1161066e576040517f08c379a000000000000000000000000000000000000000000000000000000000815260040161066590611834565b60405180910390fd5b61069c606461068e60056106806103d2565b610fc090919063ffffffff16565b610fd690919063ffffffff16565b8111156106de576040517f08c379a00000000000000000000000000000000000000000000000000000000081526004016106d5906117b4565b60405180910390fd5b6106e83382610fec565b50565b60008060008373ffffffffffffffffffffffffffffffffffffffff1673ffffffffffffffffffffffffffffffffffffffff168152602001908152602001600020549050919050565b3373ffffffffffffffffffffffffffffffffffffffff16600560009054906101000a900473ffffffffffffffffffffffffffffffffffffffff1673ffffffffffffffffffffffffffffffffffffffff16146107c3576040517f08c379a00000000000000000000000000000000000000000000000000000000081526004016107ba906116f4565b60405180910390fd5b600073ffffffffffffffffffffffffffffffffffffffff16600560009054906101000a900473ffffffffffffffffffffffffffffffffffffffff1673ffffffffffffffffffffffffffffffffffffffff167f8be0079c531659141344cd1fd0a4f28419497f9722a3daafe3b4186f6b6457e060405160405180910390a36000600560006101000a81548173ffffffffffffffffffffffffffffffffffffffff021916908373ffffffffffffffffffffffffffffffffffffffff160217905550565b6000600560009054906101000a900473ffffffffffffffffffffffffffffffffffffffff16905090565b6060600480546108bd90611a63565b80601f01602080910402602001604051908101604052809291908181526020018280546108e990611a63565b80156109365780601f1061090b57610100808354040283529160200191610936565b820191906000526020600020905b81548152906001019060200180831161091957829003601f168201915b5050505050905090565b6000806001600061094f610b6c565b73ffffffffffffffffffffffffffffffffffffffff1673ffffffffffffffffffffffffffffffffffffffff16815260200190815260200160002060008573ffffffffffffffffffffffffffffffffffffffff1673ffffffffffffffffffffffffffffffffffffffff16815260200190815260200160002054905082811015610a0c576040517f08c379a0000000000000000000000000000000000000000000000000000000008152600401610a0390611854565b60405180910390fd5b610a20610a17610b6c565b85858403610b74565b600191505092915050565b6000610a3f610a38610b6c565b8484610d3f565b6001905092915050565b6000600160008473ffffffffffffffffffffffffffffffffffffffff1673ffffffffffffffffffffffffffffffffffffffff16815260200190815260200160002060008373ffffffffffffffffffffffffffffffffffffffff1673ffffffffffffffffffffffffffffffffffffffff16815260200190815260200160002054905092915050565b3373ffffffffffffffffffffffffffffffffffffffff16600560009054906101000a900473ffffffffffffffffffffffffffffffffffffffff1673ffffffffffffffffffffffffffffffffffffffff1614610b60576040517f08c379a0000000000000000000000000000000000000000000000000000000008152600401610b57906116f4565b60405180910390fd5b610b69816111c3565b50565b600033905090565b600073ffffffffffffffffffffffffffffffffffffffff168373ffffffffffffffffffffffffffffffffffffffff161415610be4576040517f08c379a0000000000000000000000000000000000000000000000000000000008152600401610bdb90611814565b60405180910390fd5b600073ffffffffffffffffffffffffffffffffffffffff168273ffffffffffffffffffffffffffffffffffffffff161415610c54576040517f08c379a0000000000000000000000000000000000000000000000000000000008152600401610c4b90611754565b60405180910390fd5b80600160008573ffffffffffffffffffffffffffffffffffffffff1673ffffffffffffffffffffffffffffffffffffffff16815260200190815260200160002060008473ffffffffffffffffffffffffffffffffffffffff1673ffffffffffffffffffffffffffffffffffffffff168152602001908152602001600020819055508173ffffffffffffffffffffffffffffffffffffffff168373ffffffffffffffffffffffffffffffffffffffff167f8c5be1e5ebec7d5bd14f71427d1e84f3dd0314c0f7b2291e5b200ac8c7c3b92583604051610d329190611874565b60405180910390a3505050565b600073ffffffffffffffffffffffffffffffffffffffff168373ffffffffffffffffffffffffffffffffffffffff161415610daf576040517f08c379a0000000000000000000000000000000000000000000000000000000008152600401610da6906117f4565b60405180910390fd5b600073ffffffffffffffffffffffffffffffffffffffff168273ffffffffffffffffffffffffffffffffffffffff161415610e1f576040517f08c379a0000000000000000000000000000000000000000000000000000000008152600401610e16906116d4565b60405180910390fd5b610e2a8383836112f3565b60008060008573ffffffffffffffffffffffffffffffffffffffff1673ffffffffffffffffffffffffffffffffffffffff16815260200190815260200160002054905081811015610eb0576040517f08c379a0000000000000000000000000000000000000000000000000000000008152600401610ea790611774565b60405180910390fd5b8181036000808673ffffffffffffffffffffffffffffffffffffffff1673ffffffffffffffffffffffffffffffffffffffff16815260200190815260200160002081905550816000808573ffffffffffffffffffffffffffffffffffffffff1673ffffffffffffffffffffffffffffffffffffffff1681526020019081526020016000206000828254610f4391906118c6565b925050819055508273ffffffffffffffffffffffffffffffffffffffff168473ffffffffffffffffffffffffffffffffffffffff167fddf252ad1be2c89b69c2b068fc378daa952ba7f163c4a11628f55a4df523b3ef84604051610fa79190611874565b60405180910390a3610fba8484846112f8565b50505050565b60008183610fce919061194d565b905092915050565b60008183610fe4919061191c565b905092915050565b600073ffffffffffffffffffffffffffffffffffffffff168273ffffffffffffffffffffffffffffffffffffffff16141561105c576040517f08c379a0000000000000000000000000000000000000000000000000000000008152600401611053906117d4565b60405180910390fd5b611068826000836112f3565b60008060008473ffffffffffffffffffffffffffffffffffffffff1673ffffffffffffffffffffffffffffffffffffffff168152602001908152602001600020549050818110156110ee576040517f08c379a00000000000000000000000000000000000000000000000000000000081526004016110e590611714565b60405180910390fd5b8181036000808573ffffffffffffffffffffffffffffffffffffffff1673ffffffffffffffffffffffffffffffffffffffff16815260200190815260200160002081905550816002600082825461114591906119a7565b92505081905550600073ffffffffffffffffffffffffffffffffffffffff168373ffffffffffffffffffffffffffffffffffffffff167fddf252ad1be2c89b69c2b068fc378daa952ba7f163c4a11628f55a4df523b3ef846040516111aa9190611874565b60405180910390a36111be836000846112f8565b505050565b600073ffffffffffffffffffffffffffffffffffffffff168173ffffffffffffffffffffffffffffffffffffffff161415611233576040517f08c379a000000000000000000000000000000000000000000000000000000000815260040161122a90611734565b60405180910390fd5b8073ffffffffffffffffffffffffffffffffffffffff16600560009054906101000a900473ffffffffffffffffffffffffffffffffffffffff1673ffffffffffffffffffffffffffffffffffffffff167f8be0079c531659141344cd1fd0a4f28419497f9722a3daafe3b4186f6b6457e060405160405180910390a380600560006101000a81548173ffffffffffffffffffffffffffffffffffffffff021916908373ffffffffffffffffffffffffffffffffffffffff16021790555050565b505050565b505050565b60008135905061130c81611eea565b92915050565b60008135905061132181611f01565b92915050565b60006020828403121561133957600080fd5b6000611347848285016112fd565b91505092915050565b6000806040838503121561136357600080fd5b6000611371858286016112fd565b9250506020611382858286016112fd565b9150509250929050565b6000806000606084860312156113a157600080fd5b60006113af868287016112fd565b93505060206113c0868287016112fd565b92505060406113d186828701611312565b9150509250925092565b600080604083850312156113ee57600080fd5b60006113fc858286016112fd565b925050602061140d85828601611312565b9150509250929050565b60006020828403121561142957600080fd5b600061143784828501611312565b91505092915050565b611449816119db565b82525050565b611458816119ed565b82525050565b6000611469826118aa565b61147381856118b5565b9350611483818560208601611a30565b61148c81611b22565b840191505092915050565b60006114a46023836118b5565b91506114af82611b33565b604082019050919050565b60006114c7602a836118b5565b91506114d282611b82565b604082019050919050565b60006114ea6022836118b5565b91506114f582611bd1565b604082019050919050565b600061150d6026836118b5565b915061151882611c20565b604082019050919050565b60006115306022836118b5565b915061153b82611c6f565b604082019050919050565b60006115536026836118b5565b915061155e82611cbe565b604082019050919050565b60006115766028836118b5565b915061158182611d0d565b604082019050919050565b6000611599601e836118b5565b91506115a482611d5c565b602082019050919050565b60006115bc6021836118b5565b91506115c782611d85565b604082019050919050565b60006115df6025836118b5565b91506115ea82611dd4565b604082019050919050565b60006116026024836118b5565b915061160d82611e23565b604082019050919050565b6000611625600a836118b5565b915061163082611e72565b602082019050919050565b60006116486025836118b5565b915061165382611e9b565b604082019050919050565b61166781611a19565b82525050565b61167681611a23565b82525050565b60006020820190506116916000830184611440565b92915050565b60006020820190506116ac600083018461144f565b92915050565b600060208201905081810360008301526116cc818461145e565b905092915050565b600060208201905081810360008301526116ed81611497565b9050919050565b6000602082019050818103600083015261170d816114ba565b9050919050565b6000602082019050818103600083015261172d816114dd565b9050919050565b6000602082019050818103600083015261174d81611500565b9050919050565b6000602082019050818103600083015261176d81611523565b9050919050565b6000602082019050818103600083015261178d81611546565b9050919050565b600060208201905081810360008301526117ad81611569565b9050919050565b600060208201905081810360008301526117cd8161158c565b9050919050565b600060208201905081810360008301526117ed816115af565b9050919050565b6000602082019050818103600083015261180d816115d2565b9050919050565b6000602082019050818103600083015261182d816115f5565b9050919050565b6000602082019050818103600083015261184d81611618565b9050919050565b6000602082019050818103600083015261186d8161163b565b9050919050565b6000602082019050611889600083018461165e565b92915050565b60006020820190506118a4600083018461166d565b92915050565b600081519050919050565b600082825260208201905092915050565b60006118d182611a19565b91506118dc83611a19565b9250827fffffffffffffffffffffffffffffffffffffffffffffffffffffffffffffffff0382111561191157611910611a95565b5b828201905092915050565b600061192782611a19565b915061193283611a19565b92508261194257611941611ac4565b5b828204905092915050565b600061195882611a19565b915061196383611a19565b9250817fffffffffffffffffffffffffffffffffffffffffffffffffffffffffffffffff048311821515161561199c5761199b611a95565b5b828202905092915050565b60006119b282611a19565b91506119bd83611a19565b9250828210156119d0576119cf611a95565b5b828203905092915050565b60006119e6826119f9565b9050919050565b60008115159050919050565b600073ffffffffffffffffffffffffffffffffffffffff82169050919050565b6000819050919050565b600060ff82169050919050565b60005b83811015611a4e578082015181840152602081019050611a33565b83811115611a5d576000848401525b50505050565b60006002820490506001821680611a7b57607f821691505b60208210811415611a8f57611a8e611af3565b5b50919050565b7f4e487b7100000000000000000000000000000000000000000000000000000000600052601160045260246000fd5b7f4e487b7100000000000000000000000000000000000000000000000000000000600052601260045260246000fd5b7f4e487b7100000000000000000000000000000000000000000000000000000000600052602260045260246000fd5b6000601f19601f8301169050919050565b7f45524332303a207472616e7366657220746f20746865207a65726f206164647260008201527f6573730000000000000000000000000000000000000000000000000000000000602082015250565b7f4f776e61626c653a206f6e6c79206f776e65722063616e2063616c6c2074686960008201527f732066756e6374696f6e00000000000000000000000000000000000000000000602082015250565b7f45524332303a206275726e20616d6f756e7420657863656564732062616c616e60008201527f6365000000000000000000000000000000000000000000000000000000000000602082015250565b7f4f776e61626c653a206e6577206f776e657220697320746865207a65726f206160008201527f6464726573730000000000000000000000000000000000000000000000000000602082015250565b7f45524332303a20617070726f766520746f20746865207a65726f20616464726560008201527f7373000000000000000000000000000000000000000000000000000000000000602082015250565b7f45524332303a207472616e7366657220616d6f756e742065786365656473206260008201527f616c616e63650000000000000000000000000000000000000000000000000000602082015250565b7f45524332303a207472616e7366657220616d6f756e742065786365656473206160008201527f6c6c6f77616e6365000000000000000000000000000000000000000000000000602082015250565b7f43616e2774206275726e206d6f7265207468656e20352070657273656e740000600082015250565b7f45524332303a206275726e2066726f6d20746865207a65726f2061646472657360008201527f7300000000000000000000000000000000000000000000000000000000000000602082015250565b7f45524332303a207472616e736665722066726f6d20746865207a65726f20616460008201527f6472657373000000000000000000000000000000000000000000000000000000602082015250565b7f45524332303a20617070726f76652066726f6d20746865207a65726f2061646460008201527f7265737300000000000000000000000000000000000000000000000000000000602082015250565b7f43616e2774206275726e00000000000000000000000000000000000000000000600082015250565b7f45524332303a2064656372656173656420616c6c6f77616e63652062656c6f7760008201527f207a65726f000000000000000000000000000000000000000000000000000000602082015250565b611ef3816119db565b8114611efe57600080fd5b50565b611f0a81611a19565b8114611f1557600080fd5b5056fea26469706673582212208afab27993d6db20c26aad5ec7db29191cc7df354757d48cf57e524100e3867364736f6c63430008040033",
  "linkReferences": {},
  "deployedLinkReferences": {}
}