{
  "_format": "hh-sol-artifact-1",
  "contractName": "GREConverter",
  "sourceName": "contracts/GREConverter.sol",
  "abi": [
    {
      "inputs": [
        {
          "internalType": "address",
          "name": "rewardsTokenAddress",
          "type": "address"
        },
        {
          "internalType": "address payable",
          "name": "stakingDestinationAddress",
          "type": "address"
        },
        {
          "internalType": "uint256",
          "name": "rewardsTokenRate",
          "type": "uint256"
        }
      ],
      "stateMutability": "nonpayable",
      "type": "constructor"
    },
    {
      "anonymous": false,
      "inputs": [
        {
          "indexed": true,
          "internalType": "address",
          "name": "previousOwner",
          "type": "address"
        },
        {
          "indexed": true,
          "internalType": "address",
          "name": "newOwner",
          "type": "address"
        }
      ],
      "name": "OwnershipTransferred",
      "type": "event"
    },
    {
      "inputs": [],
      "name": "_rewardsToken",
      "outputs": [
        {
          "internalType": "contract IERC20",
          "name": "",
          "type": "address"
        }
      ],
      "stateMutability": "view",
      "type": "function"
    },
    {
      "inputs": [
        {
          "internalType": "uint256",
          "name": "rewardsTokenSupply",
          "type": "uint256"
        }
      ],
      "name": "addRewardsTokenSupply",
      "outputs": [],
      "stateMutability": "nonpayable",
      "type": "function"
    },
    {
      "inputs": [],
      "name": "getPoolStatus",
      "outputs": [
        {
          "internalType": "enum GREConverter.PoolStatus",
          "name": "",
          "type": "uint8"
        }
      ],
      "stateMutability": "view",
      "type": "function"
    },
    {
      "inputs": [],
      "name": "getRewardsTokenRate",
      "outputs": [
        {
          "internalType": "uint256",
          "name": "",
          "type": "uint256"
        }
      ],
      "stateMutability": "view",
      "type": "function"
    },
    {
      "inputs": [],
      "name": "getRewardsTokenReminingSupply",
      "outputs": [
        {
          "internalType": "uint256",
          "name": "",
          "type": "uint256"
        }
      ],
      "stateMutability": "view",
      "type": "function"
    },
    {
      "inputs": [],
      "name": "getRewardsTokenTotalSupply",
      "outputs": [
        {
          "internalType": "uint256",
          "name": "",
          "type": "uint256"
        }
      ],
      "stateMutability": "view",
      "type": "function"
    },
    {
      "inputs": [
        {
          "internalType": "address",
          "name": "account",
          "type": "address"
        }
      ],
      "name": "getStakeholder",
      "outputs": [
        {
          "components": [
            {
              "internalType": "uint256",
              "name": "Staking",
              "type": "uint256"
            },
            {
              "internalType": "uint256",
              "name": "Reward",
              "type": "uint256"
            }
          ],
          "internalType": "struct GREConverter.Staker",
          "name": "",
          "type": "tuple"
        }
      ],
      "stateMutability": "view",
      "type": "function"
    },
    {
      "inputs": [],
      "name": "getStakingTokenDestinationAddress",
      "outputs": [
        {
          "internalType": "address",
          "name": "",
          "type": "address"
        }
      ],
      "stateMutability": "view",
      "type": "function"
    },
    {
      "inputs": [],
      "name": "getStakingTokenTotalRecived",
      "outputs": [
        {
          "internalType": "uint256",
          "name": "",
          "type": "uint256"
        }
      ],
      "stateMutability": "view",
      "type": "function"
    },
    {
      "inputs": [],
      "name": "owner",
      "outputs": [
        {
          "internalType": "address",
          "name": "",
          "type": "address"
        }
      ],
      "stateMutability": "view",
      "type": "function"
    },
    {
      "inputs": [],
      "name": "renounceOwnership",
      "outputs": [],
      "stateMutability": "nonpayable",
      "type": "function"
    },
    {
      "inputs": [],
      "name": "setEnd",
      "outputs": [],
      "stateMutability": "nonpayable",
      "type": "function"
    },
    {
      "inputs": [],
      "name": "setLive",
      "outputs": [],
      "stateMutability": "nonpayable",
      "type": "function"
    },
    {
      "inputs": [
        {
          "internalType": "uint256",
          "name": "rewardsTokenRate",
          "type": "uint256"
        }
      ],
      "name": "setRewardsTokenRate",
      "outputs": [],
      "stateMutability": "nonpayable",
      "type": "function"
    },
    {
      "inputs": [
        {
          "internalType": "address payable",
          "name": "stakingDestinationAddress",
          "type": "address"
        }
      ],
      "name": "setStakingDestinationAddress",
      "outputs": [],
      "stateMutability": "nonpayable",
      "type": "function"
    },
    {
      "inputs": [],
      "name": "stake",
      "outputs": [],
      "stateMutability": "payable",
      "type": "function"
    },
    {
      "inputs": [
        {
          "internalType": "uint256",
          "name": "amount",
          "type": "uint256"
        }
      ],
      "name": "stakeCal",
      "outputs": [
        {
          "internalType": "uint256",
          "name": "",
          "type": "uint256"
        }
      ],
      "stateMutability": "view",
      "type": "function"
    },
    {
      "inputs": [
        {
          "internalType": "address",
          "name": "newOwner",
          "type": "address"
        }
      ],
      "name": "transferOwnership",
      "outputs": [],
      "stateMutability": "nonpayable",
      "type": "function"
    }
  ],
  "bytecode": "0x6080604052670de0b6b3a76400006006553480156200001d57600080fd5b50604051620024023803806200240283398181016040528101906200004391906200026d565b336000806101000a81548173ffffffffffffffffffffffffffffffffffffffff021916908373ffffffffffffffffffffffffffffffffffffffff16021790555060008054906101000a900473ffffffffffffffffffffffffffffffffffffffff1673ffffffffffffffffffffffffffffffffffffffff16600073ffffffffffffffffffffffffffffffffffffffff167f8be0079c531659141344cd1fd0a4f28419497f9722a3daafe3b4186f6b6457e060405160405180910390a381600760006101000a81548173ffffffffffffffffffffffffffffffffffffffff021916908373ffffffffffffffffffffffffffffffffffffffff1602179055508060028190555082600160006101000a81548173ffffffffffffffffffffffffffffffffffffffff021916908373ffffffffffffffffffffffffffffffffffffffff16021790555060008111620001cd576040517f08c379a0000000000000000000000000000000000000000000000000000000008152600401620001c490620002ea565b60405180910390fd5b6000600760146101000a81548160ff021916908360018111156200021a577f4e487b7100000000000000000000000000000000000000000000000000000000600052602160045260246000fd5b02179055505050506200040c565b6000815190506200023981620003be565b92915050565b6000815190506200025081620003d8565b92915050565b6000815190506200026781620003f2565b92915050565b6000806000606084860312156200028357600080fd5b6000620002938682870162000228565b9350506020620002a6868287016200023f565b9250506040620002b98682870162000256565b9150509250925092565b6000620002d2602a836200030c565b9150620002df826200036f565b604082019050919050565b600060208201905081810360008301526200030581620002c3565b9050919050565b600082825260208201905092915050565b60006200032a8262000345565b9050919050565b60006200033e8262000345565b9050919050565b600073ffffffffffffffffffffffffffffffffffffffff82169050919050565b6000819050919050565b7f7265776172647320746f6b656e20726174652073686f756c642062652067726160008201527f746572207468656e203000000000000000000000000000000000000000000000602082015250565b620003c9816200031d565b8114620003d557600080fd5b50565b620003e38162000331565b8114620003ef57600080fd5b50565b620003fd8162000365565b81146200040957600080fd5b50565b611fe6806200041c6000396000f3fe6080604052600436106101095760003560e01c806378389787116100955780638da5cb5b116100645780638da5cb5b14610316578063b98de7c714610341578063bb54fbc914610358578063df1bf08914610381578063f2fde38b146103aa57610109565b8063783897871461026c5780637961b2d0146102955780637f79496c146102c057806383beae2e146102eb57610109565b8063493e5398116100dc578063493e5398146101ab57806362afde25146101d65780636d6e604214610213578063715018a61461023e578063746a3aa81461025557610109565b80632024be141461010e5780633a4b66f1146101395780633f17d2001461014357806345fa1e791461016e575b600080fd5b34801561011a57600080fd5b506101236103d3565b60405161013091906118b4565b60405180910390f35b6101416103fd565b005b34801561014f57600080fd5b506101586107ff565b6040516101659190611aa0565b60405180910390f35b34801561017a57600080fd5b50610195600480360381019061019091906116d6565b610809565b6040516101a29190611aa0565b60405180910390f35b3480156101b757600080fd5b506101c0610993565b6040516101cd9190611aa0565b60405180910390f35b3480156101e257600080fd5b506101fd60048036038101906101f8919061165b565b61099d565b60405161020a9190611a85565b60405180910390f35b34801561021f57600080fd5b50610228610a0a565b6040516102359190611aa0565b60405180910390f35b34801561024a57600080fd5b50610253610a14565b005b34801561026157600080fd5b5061026a610b60565b005b34801561027857600080fd5b50610293600480360381019061028e91906116d6565b610e46565b005b3480156102a157600080fd5b506102aa61100d565b6040516102b79190611aa0565b60405180910390f35b3480156102cc57600080fd5b506102d5611017565b6040516102e2919061194a565b60405180910390f35b3480156102f757600080fd5b5061030061102e565b60405161030d919061192f565b60405180910390f35b34801561032257600080fd5b5061032b611054565b60405161033891906118b4565b60405180910390f35b34801561034d57600080fd5b5061035661107d565b005b34801561036457600080fd5b5061037f600480360381019061037a91906116d6565b611221565b005b34801561038d57600080fd5b506103a860048036038101906103a39190611684565b6112fc565b005b3480156103b657600080fd5b506103d160048036038101906103cc919061165b565b6113ce565b005b6000600760009054906101000a900473ffffffffffffffffffffffffffffffffffffffff16905090565b60006001811115610437577f4e487b7100000000000000000000000000000000000000000000000000000000600052602160045260246000fd5b600760149054906101000a900460ff16600181111561047f577f4e487b7100000000000000000000000000000000000000000000000000000000600052602160045260246000fd5b146104bf576040517f08c379a00000000000000000000000000000000000000000000000000000000081526004016104b690611a65565b60405180910390fd5b60003411610502576040517f08c379a00000000000000000000000000000000000000000000000000000000081526004016104f990611a25565b60405180910390fd5b60006105196002543461146890919063ffffffff16565b90506105306006548261147e90919063ffffffff16565b9050806004541015610577576040517f08c379a000000000000000000000000000000000000000000000000000000000815260040161056e906119c5565b60405180910390fd5b600760009054906101000a900473ffffffffffffffffffffffffffffffffffffffff1673ffffffffffffffffffffffffffffffffffffffff166108fc349081150290604051600060405180830381858888f193505050501580156105df573d6000803e3d6000fd5b50600160009054906101000a900473ffffffffffffffffffffffffffffffffffffffff1673ffffffffffffffffffffffffffffffffffffffff1663a9059cbb33836040518363ffffffff1660e01b815260040161063d929190611906565b602060405180830381600087803b15801561065757600080fd5b505af115801561066b573d6000803e3d6000fd5b505050506040513d601f19601f8201168201806040525081019061068f91906116ad565b506106e534600860003373ffffffffffffffffffffffffffffffffffffffff1673ffffffffffffffffffffffffffffffffffffffff1681526020019081526020016000206000015461149490919063ffffffff16565b600860003373ffffffffffffffffffffffffffffffffffffffff1673ffffffffffffffffffffffffffffffffffffffff1681526020019081526020016000206000018190555061078081600860003373ffffffffffffffffffffffffffffffffffffffff1673ffffffffffffffffffffffffffffffffffffffff1681526020019081526020016000206001015461149490919063ffffffff16565b600860003373ffffffffffffffffffffffffffffffffffffffff1673ffffffffffffffffffffffffffffffffffffffff168152602001908152602001600020600101819055506107db3460055461149490919063ffffffff16565b6005819055506107f6816004546114aa90919063ffffffff16565b60048190555050565b6000600454905090565b6000806001811115610844577f4e487b7100000000000000000000000000000000000000000000000000000000600052602160045260246000fd5b600760149054906101000a900460ff16600181111561088c577f4e487b7100000000000000000000000000000000000000000000000000000000600052602160045260246000fd5b146108cc576040517f08c379a00000000000000000000000000000000000000000000000000000000081526004016108c390611a65565b60405180910390fd5b6000821161090f576040517f08c379a000000000000000000000000000000000000000000000000000000000815260040161090690611a25565b60405180910390fd5b60006109266002548461146890919063ffffffff16565b9050610943670de0b6b3a76400008261147e90919063ffffffff16565b905080600454101561098a576040517f08c379a0000000000000000000000000000000000000000000000000000000008152600401610981906119c5565b60405180910390fd5b80915050919050565b6000600354905090565b6109a56115ed565b600860008373ffffffffffffffffffffffffffffffffffffffff1673ffffffffffffffffffffffffffffffffffffffff168152602001908152602001600020604051806040016040529081600082015481526020016001820154815250509050919050565b6000600554905090565b3373ffffffffffffffffffffffffffffffffffffffff1660008054906101000a900473ffffffffffffffffffffffffffffffffffffffff1673ffffffffffffffffffffffffffffffffffffffff1614610aa2576040517f08c379a0000000000000000000000000000000000000000000000000000000008152600401610a9990611965565b60405180910390fd5b600073ffffffffffffffffffffffffffffffffffffffff1660008054906101000a900473ffffffffffffffffffffffffffffffffffffffff1673ffffffffffffffffffffffffffffffffffffffff167f8be0079c531659141344cd1fd0a4f28419497f9722a3daafe3b4186f6b6457e060405160405180910390a360008060006101000a81548173ffffffffffffffffffffffffffffffffffffffff021916908373ffffffffffffffffffffffffffffffffffffffff160217905550565b3373ffffffffffffffffffffffffffffffffffffffff1660008054906101000a900473ffffffffffffffffffffffffffffffffffffffff1673ffffffffffffffffffffffffffffffffffffffff1614610bee576040517f08c379a0000000000000000000000000000000000000000000000000000000008152600401610be590611965565b60405180910390fd5b600180811115610c27577f4e487b7100000000000000000000000000000000000000000000000000000000600052602160045260246000fd5b600760149054906101000a900460ff166001811115610c6f577f4e487b7100000000000000000000000000000000000000000000000000000000600052602160045260246000fd5b1415610cb0576040517f08c379a0000000000000000000000000000000000000000000000000000000008152600401610ca7906119a5565b60405180910390fd5b60006004541115610df2576000600160009054906101000a900473ffffffffffffffffffffffffffffffffffffffff1673ffffffffffffffffffffffffffffffffffffffff1663a9059cbb610d03611054565b6004546040518363ffffffff1660e01b8152600401610d23929190611906565b602060405180830381600087803b158015610d3d57600080fd5b505af1158015610d51573d6000803e3d6000fd5b505050506040513d601f19601f82011682018060405250810190610d7591906116ad565b90508015610dec57610d946004546004546114aa90919063ffffffff16565b6004819055506001600760146101000a81548160ff02191690836001811115610de6577f4e487b7100000000000000000000000000000000000000000000000000000000600052602160045260246000fd5b02179055505b50610e44565b6001600760146101000a81548160ff02191690836001811115610e3e577f4e487b7100000000000000000000000000000000000000000000000000000000600052602160045260246000fd5b02179055505b565b3373ffffffffffffffffffffffffffffffffffffffff1660008054906101000a900473ffffffffffffffffffffffffffffffffffffffff1673ffffffffffffffffffffffffffffffffffffffff1614610ed4576040517f08c379a0000000000000000000000000000000000000000000000000000000008152600401610ecb90611965565b60405180910390fd5b60008111610f17576040517f08c379a0000000000000000000000000000000000000000000000000000000008152600401610f0e90611a45565b60405180910390fd5b6000600160009054906101000a900473ffffffffffffffffffffffffffffffffffffffff1673ffffffffffffffffffffffffffffffffffffffff166323b872dd3330856040518463ffffffff1660e01b8152600401610f78939291906118cf565b602060405180830381600087803b158015610f9257600080fd5b505af1158015610fa6573d6000803e3d6000fd5b505050506040513d601f19601f82011682018060405250810190610fca91906116ad565b9050801561100957610fe78260035461149490919063ffffffff16565b6003819055506110028260045461149490919063ffffffff16565b6004819055505b5050565b6000600254905090565b6000600760149054906101000a900460ff16905090565b600160009054906101000a900473ffffffffffffffffffffffffffffffffffffffff1681565b60008060009054906101000a900473ffffffffffffffffffffffffffffffffffffffff16905090565b3373ffffffffffffffffffffffffffffffffffffffff1660008054906101000a900473ffffffffffffffffffffffffffffffffffffffff1673ffffffffffffffffffffffffffffffffffffffff161461110b576040517f08c379a000000000000000000000000000000000000000000000000000000000815260040161110290611965565b60405180910390fd5b60006001811115611145577f4e487b7100000000000000000000000000000000000000000000000000000000600052602160045260246000fd5b600760149054906101000a900460ff16600181111561118d577f4e487b7100000000000000000000000000000000000000000000000000000000600052602160045260246000fd5b14156111ce576040517f08c379a00000000000000000000000000000000000000000000000000000000081526004016111c5906119e5565b60405180910390fd5b6000600760146101000a81548160ff0219169083600181111561121a577f4e487b7100000000000000000000000000000000000000000000000000000000600052602160045260246000fd5b0217905550565b3373ffffffffffffffffffffffffffffffffffffffff1660008054906101000a900473ffffffffffffffffffffffffffffffffffffffff1673ffffffffffffffffffffffffffffffffffffffff16146112af576040517f08c379a00000000000000000000000000000000000000000000000000000000081526004016112a690611965565b60405180910390fd5b600081116112f2576040517f08c379a00000000000000000000000000000000000000000000000000000000081526004016112e990611a05565b60405180910390fd5b8060028190555050565b3373ffffffffffffffffffffffffffffffffffffffff1660008054906101000a900473ffffffffffffffffffffffffffffffffffffffff1673ffffffffffffffffffffffffffffffffffffffff161461138a576040517f08c379a000000000000000000000000000000000000000000000000000000000815260040161138190611965565b60405180910390fd5b80600760006101000a81548173ffffffffffffffffffffffffffffffffffffffff021916908373ffffffffffffffffffffffffffffffffffffffff16021790555050565b3373ffffffffffffffffffffffffffffffffffffffff1660008054906101000a900473ffffffffffffffffffffffffffffffffffffffff1673ffffffffffffffffffffffffffffffffffffffff161461145c576040517f08c379a000000000000000000000000000000000000000000000000000000000815260040161145390611965565b60405180910390fd5b611465816114c0565b50565b600081836114769190611b22565b905092915050565b6000818361148c9190611b53565b905092915050565b600081836114a29190611acc565b905092915050565b600081836114b89190611bad565b905092915050565b600073ffffffffffffffffffffffffffffffffffffffff168173ffffffffffffffffffffffffffffffffffffffff161415611530576040517f08c379a000000000000000000000000000000000000000000000000000000000815260040161152790611985565b60405180910390fd5b8073ffffffffffffffffffffffffffffffffffffffff1660008054906101000a900473ffffffffffffffffffffffffffffffffffffffff1673ffffffffffffffffffffffffffffffffffffffff167f8be0079c531659141344cd1fd0a4f28419497f9722a3daafe3b4186f6b6457e060405160405180910390a3806000806101000a81548173ffffffffffffffffffffffffffffffffffffffff021916908373ffffffffffffffffffffffffffffffffffffffff16021790555050565b604051806040016040528060008152602001600081525090565b60008135905061161681611f54565b92915050565b60008135905061162b81611f6b565b92915050565b60008151905061164081611f82565b92915050565b60008135905061165581611f99565b92915050565b60006020828403121561166d57600080fd5b600061167b84828501611607565b91505092915050565b60006020828403121561169657600080fd5b60006116a48482850161161c565b91505092915050565b6000602082840312156116bf57600080fd5b60006116cd84828501611631565b91505092915050565b6000602082840312156116e857600080fd5b60006116f684828501611646565b91505092915050565b61170881611be1565b82525050565b61171781611c4e565b82525050565b61172681611c72565b82525050565b6000611739602a83611abb565b915061174482611d11565b604082019050919050565b600061175c602683611abb565b915061176782611d60565b604082019050919050565b600061177f601583611abb565b915061178a82611daf565b602082019050919050565b60006117a2601c83611abb565b91506117ad82611dd8565b602082019050919050565b60006117c5601483611abb565b91506117d082611e01565b602082019050919050565b60006117e8602a83611abb565b91506117f382611e2a565b604082019050919050565b600061180b602483611abb565b915061181682611e79565b604082019050919050565b600061182e602c83611abb565b915061183982611ec8565b604082019050919050565b6000611851601083611abb565b915061185c82611f17565b602082019050919050565b60408201600082015161187d6000850182611896565b5060208201516118906020850182611896565b50505050565b61189f81611c44565b82525050565b6118ae81611c44565b82525050565b60006020820190506118c960008301846116ff565b92915050565b60006060820190506118e460008301866116ff565b6118f160208301856116ff565b6118fe60408301846118a5565b949350505050565b600060408201905061191b60008301856116ff565b61192860208301846118a5565b9392505050565b6000602082019050611944600083018461170e565b92915050565b600060208201905061195f600083018461171d565b92915050565b6000602082019050818103600083015261197e8161172c565b9050919050565b6000602082019050818103600083015261199e8161174f565b9050919050565b600060208201905081810360008301526119be81611772565b9050919050565b600060208201905081810360008301526119de81611795565b9050919050565b600060208201905081810360008301526119fe816117b8565b9050919050565b60006020820190508181036000830152611a1e816117db565b9050919050565b60006020820190508181036000830152611a3e816117fe565b9050919050565b60006020820190508181036000830152611a5e81611821565b9050919050565b60006020820190508181036000830152611a7e81611844565b9050919050565b6000604082019050611a9a6000830184611867565b92915050565b6000602082019050611ab560008301846118a5565b92915050565b600082825260208201905092915050565b6000611ad782611c44565b9150611ae283611c44565b9250827fffffffffffffffffffffffffffffffffffffffffffffffffffffffffffffffff03821115611b1757611b16611c84565b5b828201905092915050565b6000611b2d82611c44565b9150611b3883611c44565b925082611b4857611b47611cb3565b5b828204905092915050565b6000611b5e82611c44565b9150611b6983611c44565b9250817fffffffffffffffffffffffffffffffffffffffffffffffffffffffffffffffff0483118215151615611ba257611ba1611c84565b5b828202905092915050565b6000611bb882611c44565b9150611bc383611c44565b925082821015611bd657611bd5611c84565b5b828203905092915050565b6000611bec82611c24565b9050919050565b6000611bfe82611c24565b9050919050565b60008115159050919050565b6000819050611c1f82611f40565b919050565b600073ffffffffffffffffffffffffffffffffffffffff82169050919050565b6000819050919050565b6000611c5982611c60565b9050919050565b6000611c6b82611c24565b9050919050565b6000611c7d82611c11565b9050919050565b7f4e487b7100000000000000000000000000000000000000000000000000000000600052601160045260246000fd5b7f4e487b7100000000000000000000000000000000000000000000000000000000600052601260045260246000fd5b7f4e487b7100000000000000000000000000000000000000000000000000000000600052602160045260246000fd5b7f4f776e61626c653a206f6e6c79206f776e65722063616e2063616c6c2074686960008201527f732066756e6374696f6e00000000000000000000000000000000000000000000602082015250565b7f4f776e61626c653a206e6577206f776e657220697320746865207a65726f206160008201527f6464726573730000000000000000000000000000000000000000000000000000602082015250565b7f5374616b696e6720616c726561647920456e6465640000000000000000000000600082015250565b7f416d6f756e742069732065786363656420746865207374616b696e6700000000600082015250565b7f5374616b696e6720616c7265616479206c697665000000000000000000000000600082015250565b7f7265776172647320746f6b656e20726174652073686f756c642062652067726160008201527f746572207468656e203000000000000000000000000000000000000000000000602082015250565b7f7374616b6520616d6f756e742073686f756c642062652067726174657220746860008201527f656e203000000000000000000000000000000000000000000000000000000000602082015250565b7f7265776172647320746f6b656e20737570706c792073686f756c64206265206760008201527f7261746572207468656e20300000000000000000000000000000000000000000602082015250565b7f5374616b696e6720697320656e64656400000000000000000000000000000000600082015250565b60028110611f5157611f50611ce2565b5b50565b611f5d81611be1565b8114611f6857600080fd5b50565b611f7481611bf3565b8114611f7f57600080fd5b50565b611f8b81611c05565b8114611f9657600080fd5b50565b611fa281611c44565b8114611fad57600080fd5b5056fea264697066735822122062daf1d8ae144ed3a7e86a8e39dd1493a263749ee8cdf213ce2ae1ba1f781f0064736f6c63430008040033",
  "linkReferences": {},
  "deployedLinkReferences": {}
}